:02000000FE2FD1
:1000060083128501870108002130831285003F3065
:100016008700080007308312990083169101143077
:100026008500870108000D2083120519051E1D286D
:1000360087018501051D051E2128A22183120519A8
:10004600051A172844241728F901FA0177087A02B5
:10005600031D2F287608790203180800C730F80018
:100066003428F80B3328372838280130F9070318C5
:10007600FA0A0030FA07292803209630F6000030E5
:10008600F70027202130831285000930870096303B
:10009600F6000030F70027208312850136308700EE
:1000A6009630F6000030F7002720080083128501FD
:1000B600303087009630F6000030F70027200130F8
:1000C60083128500013087009630F6000030F70075
:1000D600272006308312870085019630F60000300F
:1000E600F70027200800F401F501701C802872082B
:1000F600F4070318F50A7308F50701300310F20D2B
:10010600F30DFF3E031D812801300310F10CF00CA6
:10011600FF3E031D882870087104031D78287508A2
:10012600F1007408F00008002C30FB000130FC00E0
:100136007C08803AFF0080307F02031DA4281F3010
:100146007B02031C080007207C08F7007B08F600EA
:10015600272003207C08F7007B08F6002720E230E2
:10016600FB070318FC0AFF30FC079B280320963088
:10017600F6000030F70027200630831287009630FD
:10018600F6000030F7002720213083128500093061
:1001960087009630F6000030F7002720831285018D
:1001A600303087009630F6000030F7002720032015
:1001B6009630F6000030F700272030308312870093
:1001C6009630F6000030F700272021308312850094
:1001D600093087009630F6000030F700272083129A
:1001E6008501063087009630F6000030F70027209C
:1001F600080003209630F6000030F7002720213053
:10020600831285008230F6000030F700272009307F
:10021600831287006E30F6000030F70027203F304B
:10022600831287006430F6000030F700272009307B
:10023600831287006E30F6000030F7002720831205
:1002460087018230F6000030F7002720FB01FC0111
:100256007C08803AFF0080307F02031D342903307A
:100266007B0203180800831285019630F6000030E1
:10027600F70027202130831285009630F6000030E3
:10028600F70027200130FB070318FC0A0030FC07A3
:100296002B2903207C08F1007B08F0001E30F200B9
:1002A6000030F300762070098312A0007109A100C6
:1002B600A00A0319A10A2008963EF6002108031891
:1002C600013E003EF70027201530831287007C0888
:1002D600F1007B08F0001E30F2000030F3007620BB
:1002E60070098312A0007109A100A00A0319A10ACE
:1002F6002008963EF60021080318013E003EF7004E
:1003060027202A30831287007C08F1007B08F00042
:100316001E30F2000030F300762070098312A00030
:100326007109A100A00A0319A10A2008963EF60049
:1003360021080318013E003EF7002720080083121B
:10034600A401A5012508803AFF0080307F02031D25
:10035600AE29033024020318F02983122508FC0075
:100366002408FB0065268312A601A7012708803A08
:10037600FF0080307F02031DC229033026020318C6
:10038600DD2983122708FC002608FB0065260720C6
:1003960001308312A6070318A70A0030A70727080B
:1003A600803AFF0080307F02031DDB2903302602DE
:1003B600031CC429B92001308312A4070318A50A17
:1003C6000030A5072508803AFF0080307F02031D14
:1003D600EE2903302402031CB02997200030FB00CD
:1003E600FC004C2176233F20B92076230030FB0009
:1003F600FC000422B920FC200030FB00FC00042293
:100406000800013083128500013087007C08F10066
:100416007B08F0001E30F2000030F30076207009F1
:100426008312A0007109A100A00A0319A10A2008DD
:10043600963EF60021080318013E003EF7002720ED
:1004460083128501063087007C08F1007B08F000E6
:100456001E30F2000030F300762070098312A000EF
:100466007109A100A00A0319A10A2008963EF60008
:1004760021080318013E003EF70027202030831292
:100486008500083087007C08F1007B08F0001E30EC
:10049600F2000030F300762070098312A000710983
:1004A600A100A00A0319A10A2008963EF600210819
:1004B6000318013E003EF7002720303083128700E4
:1004C60085017C08F1007B08F0001E30F200003048
:1004D600F300762070098312A0007109A100A00A1A
:1004E6000319A10A2008963EF60021080318013ECA
:1004F600003EF70027208312A201A3012308803AB9
:10050600FF0080307F02031D8A2A0330220203186F
:1005160008000930831287006430F6000030F700C7
:1005260027201230831287006430F6000030F7006F
:1005360027202430831287006430F6000030F7004D
:10054600272001308312A2070318A30A0030A3074D
:10055600812A03207C08F1007B08F0001E30F2009F
:100566000030F300762070098312A0007109A10003
:10057600A00A0319A10A2008963EF60021080318CE
:10058600013E003EF70027200330831287007C08D7
:10059600F1007B08F0001E30F2000030F3007620F8
:1005A60070098312A0007109A100A00A0319A10A0B
:1005B6002008963EF60021080318013E003EF7008B
:1005C60027200630831287007C08F1007B08F000A4
:1005D6001E30F2000030F300762070098312A0006E
:1005E6007109A100A00A0319A10A2008963EF60087
:1005F60021080318013E003EF70027200C30831225
:1006060087007C08F1007B08F0001E30F200003005
:10061600F300762070098312A0007109A100A00AD8
:100626000319A10A2008963EF60021080318013E88
:10063600003EF70027201830831287007C08F1005F
:100646007B08F0001E30F2000030F30076207009BF
:100656008312A0007109A100A00A0319A10A2008AB
:10066600963EF60021080318013E003EF7002720BB
:100676003030831287007C08F1007B08F0001E30C2
:10068600F2000030F300762070098312A000710991
:10069600A100A00A0319A10A2008963EF600210827
:1006A6000318013E003EF700272021308312870001
:1006B6007C08F1007B08F0001E30F2000030F300E9
:1006C600762070098312A0007109A100A00A0319FF
:1006D600A10A2008963EF60021080318013E003EB6
:1006E600F700272008000130831285008701643057
:1006F600F6000030F70027200130831287006430AF
:10070600F6000030F70027200330831287008501AA
:100716006430F6000030F700272006308312870089
:100726006430F6000030F70027200C308312870073
:100736006430F6000030F700272008308312870067
:10074600203085006430F6000030F7002720831241
:1007560087016430F6000030F70027200830831246
:1007660087006430F6000030F70027201830831227
:10077600870085016430F6000030F700272030300E
:10078600831287006430F6000030F70027202130FE
:10079600831287006430F6000030F700272001300E
:1007A600831287006430F6000030F70027200130FE
:1007B600831285006430F6000030F700272083128C
:1007C60085016430F6000030F700272021308312BF
:1007D60087006430F6000030F7002720303083129F
:1007E60087006430F6000030F700272018308312A7
:1007F60087006430F6000030F700272008308312A7
:100806008700203085006430F6000030F70027208E
:10081600831287016430F6000030F7002720083085
:10082600831287006430F6000030F70027200C3072
:100836008312870085016430F6000030F700272018
:100846000630831287006430F6000030F700272058
:100856000330831287006430F6000030F70027204B
:100866000130831287006430F6000030F70027203D
:100876000130831285006430F6000030F70027202F
:10088600080097208312AA01AB012B08803AFF00CB
:1008960080307F02031D512C02302A020318712C6E
:1008A60083122B08FC002A08FB004225072064302F
:1008B600F6000030F700272001308312AA0703183C
:1008C600AB0A0030AB072B08803AFF0080307F026E
:1008D600031D6F2C02302A02031C532C8312AC0119
:1008E600AD012D08803AFF0080307F02031D7D2C6C
:1008F60003302C020318C02C83122D08FC002C0890
:10090600FB004225B9203F208312A401A50125083A
:10091600803AFF0080307F02031D932C03302402AF
:100926000318AD2C83122D08FC002C08FB0065264D
:1009360001308312A4070318A50A0030A50725086D
:10094600803AFF0080307F02031DAB2C0330240267
:10095600031C952C592001308312AC070318AD0AED
:100966000030AD072D08803AFF0080307F02031D5E
:10097600BE2C03302C02031C7F2C8312A601A70178
:100986002708803AFF0080307F02031DCC2C0530FB
:1009960026020318E42C0030FB00FC000422013080
:1009A6008312A6070318A70A0030A7072708803A6C
:1009B600FF0080307F02031DE22C05302602031C57
:1009C600CE2C8312A801A9012908803AFF008030A5
:1009D6007F02031DF02C023028020318332DB920A4
:1009E6008312AE01AF012F08803AFF0080307F02EC
:1009F600031DFF2C04302E0203181F2D83122F080F
:100A0600FC002E08FB00652683122F08FC002E082A
:100A1600FB00AC2201308312AE070318AF0A003088
:100A2600AF072F08803AFF0080307F02031D1D2D7F
:100A360004302E02031C012DFC2097200130831266
:100A4600A8070318A90A0030A9072908803AFF0059
:100A560080307F02031D312D02302802031CF22C48
:100A66000030FB00FC0042250030FB00FC004C215E
:100A76000030FB00FC006526762397200800032043
:100A86007C08F1007B08F0001E30F2000030F30015
:100A9600762070098312A0007109A100A00A03192B
:100AA600A10A2008643EF60021080318013E003E14
:100AB600F70027200130831285007C08F1007B08AF
:100AC600F0001E30F2000030F30076207009831229
:100AD600A0007109A100A00A0319A10A2008643E1A
:100AE600F60021080318013E003EF7002720831276
:100AF6008501013087007C08F1007B08F0001E307C
:100B0600F2000030F300762070098312A00071090C
:100B1600A100A00A0319A10A2008963EF6002108A2
:100B26000318013E003EF700272008308312870095
:100B36007C08F1007B08F0001E30F2000030F30064
:100B4600762070098312A0007109A100A00A03197A
:100B5600A10A2008963EF60021080318013E003E31
:100B6600F700272083128701203085007C08F100DA
:100B76007B08F0001E30F2000030F300762070098A
:100B86008312A0007109A100A00A0319A10A200876
:100B9600963EF60021080318013E003EF700272086
:100BA60003207C08F1007B08F0001E30F2000030C4
:100BB600F300762070098312A0007109A100A00A33
:100BC6000319A10A2008643EF60021080318013E15
:100BD600003EF70027202030831285007C08F100B4
:100BE6007B08F0001E30F2000030F300762070091A
:100BF6008312A0007109A100A00A0319A10A200806
:100C0600643EF60021080318013E003EF700272047
:100C160083128501083087007C08F1007B08F0000C
:100C26001E30F2000030F300762070098312A00017
:100C36007109A100A00A0319A10A2008963EF60030
:100C460021080318013E003EF700272001308312D9
:100C560087007C08F1007B08F0001E30F2000030AF
:100C6600F300762070098312A0007109A100A00A82
:100C76000319A10A2008963EF60021080318013E32
:100C8600003EF700272083128701013085007C088B
:100C9600F1007B08F0001E30F2000030F3007620F1
:100CA60070098312A0007109A100A00A0319A10A04
:100CB6002008963EF60021080318013E003EF70084
:100CC6002720080003207C08F1007B08F0001E3076
:100CD600F2000030F300762070098312A00071093B
:100CE600A100A00A0319A10A2008643EF600210803
:100CF6000318013E003EF7002720013083128700CB
:100D06007C08F1007B08F0001E30F2000030F30092
:100D1600762070098312A0007109A100A00A0319A8
:100D2600A10A2008643EF60021080318013E003E91
:100D3600F70027200230831287007C08F1007B0829
:100D4600F0001E30F2000030F300762070098312A6
:100D5600A0007109A100A00A0319A10A2008643E97
:100D6600F60021080318013E003EF7002720043054
:100D7600831287007C08F1007B08F0001E30F20029
:100D86000030F300762070098312A0007109A100DB
:100D9600A00A0319A10A2008643EF60021080318D8
:100DA600013E003EF70027200830831287007C08AA
:100DB600F1007B08F0001E30F2000030F3007620D0
:100DC60070098312A0007109A100A00A0319A10AE3
:100DD6002008643EF60021080318013E003EF70095
:100DE60027201030831287007C08F1007B08F00072
:100DF6001E30F2000030F300762070098312A00046
:100E06007109A100A00A0319A10A2008643EF60090
:100E160021080318013E003EF700272020308312E8
:100E260087007C08F1007B08F0001E30F2000030DD
:100E3600F300762070098312A0007109A100A00AB0
:100E46000319A10A2008643EF60021080318013E92
:100E5600003EF700272001308312870003207C081C
:100E6600F1007B08F0001E30F2000030F30076201F
:100E760070098312A0007109A100A00A0319A10A32
:100E86002008643EF60021080318013E003EF700E4
:100E960027200130831287007C08F1007B08F000D0
:100EA6001E30F2000030F300762070098312A00095
:100EB6007109A100A00A0319A10A2008643EF600E0
:100EC60021080318013E003EF70027202030831238
:100ED60087007C08F1007B08F0001E30F20000302D
:100EE600F300762070098312A0007109A100A00A00
:100EF6000319A10A2008643EF60021080318013EE2
:100F0600003EF70027201030831287007C08F1008E
:100F16007B08F0001E30F2000030F30076207009E6
:100F26008312A0007109A100A00A0319A10A2008D2
:100F3600643EF60021080318013E003EF700272014
:100F46000830831287007C08F1007B08F0001E3011
:100F5600F2000030F300762070098312A0007109B8
:100F6600A100A00A0319A10A2008643EF600210880
:100F76000318013E003EF700272004308312870045
:100F86007C08F1007B08F0001E30F2000030F30010
:100F9600762070098312A0007109A100A00A031926
:100FA600A10A2008643EF60021080318013E003E0F
:100FB600F70027200230831287007C08F1007B08A7
:100FC600F0001E30F2000030F30076207009831224
:100FD600A0007109A100A00A0319A10A2008643E15
:100FE600F60021080318013E003EF70027200130D5
:0A0FF600831287000800830116280B
:02400E00C4F0FC
:00000001FF
